{
  "_format": "hh-sol-artifact-1",
  "contractName": "SoulboundCoreNFT",
  "sourceName": "contracts/SoulboundCoreNFT.sol",
  "abi": [
    {
      "inputs": [
        {
          "internalType": "string",
          "name": "initialBaseURI",
          "type": "string"
        }
      ],
      "stateMutability": "nonpayable",
      "type": "constructor"
    },
    {
      "inputs": [
        {
          "internalType": "address",
          "name": "from",
          "type": "address"
        },
        {
          "internalType": "address",
          "name": "to",
          "type": "address"
        },
        {
          "internalType": "uint256",
          "name": "tokenId",
          "type": "uint256"
        }
      ],
      "name": "SoulboundNotTransferable",
      "type": "error"
    },
    {
      "anonymous": false,
      "inputs": [
        {
          "indexed": true,
          "internalType": "address",
          "name": "owner",
          "type": "address"
        },
        {
          "indexed": true,
          "internalType": "address",
          "name": "approved",
          "type": "address"
        },
        {
          "indexed": true,
          "internalType": "uint256",
          "name": "tokenId",
          "type": "uint256"
        }
      ],
      "name": "Approval",
      "type": "event"
    },
    {
      "anonymous": false,
      "inputs": [
        {
          "indexed": true,
          "internalType": "address",
          "name": "owner",
          "type": "address"
        },
        {
          "indexed": true,
          "internalType": "address",
          "name": "operator",
          "type": "address"
        },
        {
          "indexed": false,
          "internalType": "bool",
          "name": "approved",
          "type": "bool"
        }
      ],
      "name": "ApprovalForAll",
      "type": "event"
    },
    {
      "anonymous": false,
      "inputs": [
        {
          "indexed": false,
          "internalType": "string",
          "name": "oldURI",
          "type": "string"
        },
        {
          "indexed": false,
          "internalType": "string",
          "name": "newURI",
          "type": "string"
        }
      ],
      "name": "BaseURIChanged",
      "type": "event"
    },
    {
      "anonymous": false,
      "inputs": [
        {
          "indexed": false,
          "internalType": "uint256",
          "name": "_fromTokenId",
          "type": "uint256"
        },
        {
          "indexed": false,
          "internalType": "uint256",
          "name": "_toTokenId",
          "type": "uint256"
        }
      ],
      "name": "BatchMetadataUpdate",
      "type": "event"
    },
    {
      "anonymous": false,
      "inputs": [
        {
          "indexed": true,
          "internalType": "address",
          "name": "oldDev",
          "type": "address"
        },
        {
          "indexed": true,
          "internalType": "address",
          "name": "newDev",
          "type": "address"
        }
      ],
      "name": "DeveloperChanged",
      "type": "event"
    },
    {
      "anonymous": false,
      "inputs": [
        {
          "indexed": false,
          "internalType": "uint256",
          "name": "_tokenId",
          "type": "uint256"
        }
      ],
      "name": "MetadataUpdate",
      "type": "event"
    },
    {
      "anonymous": false,
      "inputs": [
        {
          "indexed": true,
          "internalType": "address",
          "name": "minter",
          "type": "address"
        },
        {
          "indexed": true,
          "internalType": "uint256",
          "name": "tokenId",
          "type": "uint256"
        },
        {
          "indexed": false,
          "internalType": "string",
          "name": "imageHash",
          "type": "string"
        }
      ],
      "name": "Minted",
      "type": "event"
    },
    {
      "anonymous": false,
      "inputs": [
        {
          "indexed": true,
          "internalType": "address",
          "name": "previousOwner",
          "type": "address"
        },
        {
          "indexed": true,
          "internalType": "address",
          "name": "newOwner",
          "type": "address"
        }
      ],
      "name": "OwnershipTransferred",
      "type": "event"
    },
    {
      "anonymous": false,
      "inputs": [
        {
          "indexed": true,
          "internalType": "address",
          "name": "from",
          "type": "address"
        },
        {
          "indexed": true,
          "internalType": "address",
          "name": "to",
          "type": "address"
        },
        {
          "indexed": true,
          "internalType": "uint256",
          "name": "tokenId",
          "type": "uint256"
        }
      ],
      "name": "Transfer",
      "type": "event"
    },
    {
      "inputs": [],
      "name": "MAX_SUPPLY",
      "outputs": [
        {
          "internalType": "uint256",
          "name": "",
          "type": "uint256"
        }
      ],
      "stateMutability": "view",
      "type": "function"
    },
    {
      "inputs": [],
      "name": "MINT_PRICE",
      "outputs": [
        {
          "internalType": "uint256",
          "name": "",
          "type": "uint256"
        }
      ],
      "stateMutability": "view",
      "type": "function"
    },
    {
      "inputs": [
        {
          "internalType": "address",
          "name": "to",
          "type": "address"
        },
        {
          "internalType": "uint256",
          "name": "tokenId",
          "type": "uint256"
        }
      ],
      "name": "approve",
      "outputs": [],
      "stateMutability": "nonpayable",
      "type": "function"
    },
    {
      "inputs": [
        {
          "internalType": "address",
          "name": "owner",
          "type": "address"
        }
      ],
      "name": "balanceOf",
      "outputs": [
        {
          "internalType": "uint256",
          "name": "",
          "type": "uint256"
        }
      ],
      "stateMutability": "view",
      "type": "function"
    },
    {
      "inputs": [],
      "name": "baseImageURI",
      "outputs": [
        {
          "internalType": "string",
          "name": "",
          "type": "string"
        }
      ],
      "stateMutability": "view",
      "type": "function"
    },
    {
      "inputs": [
        {
          "internalType": "address",
          "name": "user",
          "type": "address"
        }
      ],
      "name": "canMint",
      "outputs": [
        {
          "internalType": "bool",
          "name": "allowed",
          "type": "bool"
        },
        {
          "internalType": "string",
          "name": "reason",
          "type": "string"
        }
      ],
      "stateMutability": "view",
      "type": "function"
    },
    {
      "inputs": [],
      "name": "devAddress",
      "outputs": [
        {
          "internalType": "address payable",
          "name": "",
          "type": "address"
        }
      ],
      "stateMutability": "view",
      "type": "function"
    },
    {
      "inputs": [
        {
          "internalType": "uint256",
          "name": "tokenId",
          "type": "uint256"
        }
      ],
      "name": "getApproved",
      "outputs": [
        {
          "internalType": "address",
          "name": "",
          "type": "address"
        }
      ],
      "stateMutability": "view",
      "type": "function"
    },
    {
      "inputs": [
        {
          "internalType": "uint256",
          "name": "tokenId",
          "type": "uint256"
        }
      ],
      "name": "imageHashOf",
      "outputs": [
        {
          "internalType": "string",
          "name": "",
          "type": "string"
        }
      ],
      "stateMutability": "view",
      "type": "function"
    },
    {
      "inputs": [
        {
          "internalType": "address",
          "name": "owner",
          "type": "address"
        },
        {
          "internalType": "address",
          "name": "operator",
          "type": "address"
        }
      ],
      "name": "isApprovedForAll",
      "outputs": [
        {
          "internalType": "bool",
          "name": "",
          "type": "bool"
        }
      ],
      "stateMutability": "view",
      "type": "function"
    },
    {
      "inputs": [
        {
          "internalType": "string",
          "name": "imageHash",
          "type": "string"
        }
      ],
      "name": "mint",
      "outputs": [],
      "stateMutability": "payable",
      "type": "function"
    },
    {
      "inputs": [],
      "name": "name",
      "outputs": [
        {
          "internalType": "string",
          "name": "",
          "type": "string"
        }
      ],
      "stateMutability": "view",
      "type": "function"
    },
    {
      "inputs": [],
      "name": "owner",
      "outputs": [
        {
          "internalType": "address",
          "name": "",
          "type": "address"
        }
      ],
      "stateMutability": "view",
      "type": "function"
    },
    {
      "inputs": [
        {
          "internalType": "uint256",
          "name": "tokenId",
          "type": "uint256"
        }
      ],
      "name": "ownerOf",
      "outputs": [
        {
          "internalType": "address",
          "name": "",
          "type": "address"
        }
      ],
      "stateMutability": "view",
      "type": "function"
    },
    {
      "inputs": [],
      "name": "renounceOwnership",
      "outputs": [],
      "stateMutability": "nonpayable",
      "type": "function"
    },
    {
      "inputs": [
        {
          "internalType": "address",
          "name": "from",
          "type": "address"
        },
        {
          "internalType": "address",
          "name": "to",
          "type": "address"
        },
        {
          "internalType": "uint256",
          "name": "tokenId",
          "type": "uint256"
        }
      ],
      "name": "safeTransferFrom",
      "outputs": [],
      "stateMutability": "nonpayable",
      "type": "function"
    },
    {
      "inputs": [
        {
          "internalType": "address",
          "name": "from",
          "type": "address"
        },
        {
          "internalType": "address",
          "name": "to",
          "type": "address"
        },
        {
          "internalType": "uint256",
          "name": "tokenId",
          "type": "uint256"
        },
        {
          "internalType": "bytes",
          "name": "data",
          "type": "bytes"
        }
      ],
      "name": "safeTransferFrom",
      "outputs": [],
      "stateMutability": "nonpayable",
      "type": "function"
    },
    {
      "inputs": [
        {
          "internalType": "address",
          "name": "operator",
          "type": "address"
        },
        {
          "internalType": "bool",
          "name": "approved",
          "type": "bool"
        }
      ],
      "name": "setApprovalForAll",
      "outputs": [],
      "stateMutability": "nonpayable",
      "type": "function"
    },
    {
      "inputs": [
        {
          "internalType": "string",
          "name": "uri",
          "type": "string"
        }
      ],
      "name": "setBaseImageURI",
      "outputs": [],
      "stateMutability": "nonpayable",
      "type": "function"
    },
    {
      "inputs": [
        {
          "internalType": "address payable",
          "name": "newDev",
          "type": "address"
        }
      ],
      "name": "setDeveloper",
      "outputs": [],
      "stateMutability": "nonpayable",
      "type": "function"
    },
    {
      "inputs": [
        {
          "internalType": "bytes4",
          "name": "interfaceId",
          "type": "bytes4"
        }
      ],
      "name": "supportsInterface",
      "outputs": [
        {
          "internalType": "bool",
          "name": "",
          "type": "bool"
        }
      ],
      "stateMutability": "view",
      "type": "function"
    },
    {
      "inputs": [],
      "name": "symbol",
      "outputs": [
        {
          "internalType": "string",
          "name": "",
          "type": "string"
        }
      ],
      "stateMutability": "view",
      "type": "function"
    },
    {
      "inputs": [
        {
          "internalType": "uint256",
          "name": "tokenId",
          "type": "uint256"
        }
      ],
      "name": "tokenURI",
      "outputs": [
        {
          "internalType": "string",
          "name": "",
          "type": "string"
        }
      ],
      "stateMutability": "view",
      "type": "function"
    },
    {
      "inputs": [],
      "name": "totalMinted",
      "outputs": [
        {
          "internalType": "uint256",
          "name": "",
          "type": "uint256"
        }
      ],
      "stateMutability": "view",
      "type": "function"
    },
    {
      "inputs": [
        {
          "internalType": "address",
          "name": "",
          "type": "address"
        }
      ],
      "name": "transferAllowed",
      "outputs": [
        {
          "internalType": "bool",
          "name": "",
          "type": "bool"
        }
      ],
      "stateMutability": "view",
      "type": "function"
    },
    {
      "inputs": [
        {
          "internalType": "address",
          "name": "from",
          "type": "address"
        },
        {
          "internalType": "address",
          "name": "to",
          "type": "address"
        },
        {
          "internalType": "uint256",
          "name": "tokenId",
          "type": "uint256"
        }
      ],
      "name": "transferFrom",
      "outputs": [],
      "stateMutability": "nonpayable",
      "type": "function"
    },
    {
      "inputs": [
        {
          "internalType": "address",
          "name": "newOwner",
          "type": "address"
        }
      ],
      "name": "transferOwnership",
      "outputs": [],
      "stateMutability": "nonpayable",
      "type": "function"
    },
    {
      "inputs": [],
      "name": "withdraw",
      "outputs": [],
      "stateMutability": "nonpayable",
      "type": "function"
    }
  ],
  "bytecode": "0x60806040523480156200001157600080fd5b5060405162004bc538038062004bc58339818101604052810190620000379190620003a4565b6040518060400160405280601381526020017f536f756c626f756e6444796e616d69634e4654000000000000000000000000008152506040518060400160405280600581526020017f53424e46540000000000000000000000000000000000000000000000000000008152508160009081620000b4919062000640565b508060019081620000c6919062000640565b505050620000e9620000dd6200014360201b60201c565b6200014b60201b60201c565b8060099081620000fa919062000640565b5033600a60006101000a81548173ffffffffffffffffffffffffffffffffffffffff021916908373ffffffffffffffffffffffffffffffffffffffff1602179055505062000727565b600033905090565b6000600760009054906101000a900473ffffffffffffffffffffffffffffffffffffffff16905081600760006101000a81548173ffffffffffffffffffffffffffffffffffffffff021916908373ffffffffffffffffffffffffffffffffffffffff1602179055508173ffffffffffffffffffffffffffffffffffffffff168173ffffffffffffffffffffffffffffffffffffffff167f8be0079c531659141344cd1fd0a4f28419497f9722a3daafe3b4186f6b6457e060405160405180910390a35050565b6000604051905090565b600080fd5b600080fd5b600080fd5b600080fd5b6000601f19601f8301169050919050565b7f4e487b7100000000000000000000000000000000000000000000000000000000600052604160045260246000fd5b6200027a826200022f565b810181811067ffffffffffffffff821117156200029c576200029b62000240565b5b80604052505050565b6000620002b162000211565b9050620002bf82826200026f565b919050565b600067ffffffffffffffff821115620002e257620002e162000240565b5b620002ed826200022f565b9050602081019050919050565b60005b838110156200031a578082015181840152602081019050620002fd565b60008484015250505050565b60006200033d6200033784620002c4565b620002a5565b9050828152602081018484840111156200035c576200035b6200022a565b5b62000369848285620002fa565b509392505050565b600082601f83011262000389576200038862000225565b5b81516200039b84826020860162000326565b91505092915050565b600060208284031215620003bd57620003bc6200021b565b5b600082015167ffffffffffffffff811115620003de57620003dd62000220565b5b620003ec8482850162000371565b91505092915050565b600081519050919050565b7f4e487b7100000000000000000000000000000000000000000000000000000000600052602260045260246000fd5b600060028204905060018216806200044857607f821691505b6020821081036200045e576200045d62000400565b5b50919050565b60008190508160005260206000209050919050565b60006020601f8301049050919050565b600082821b905092915050565b600060088302620004c87fffffffffffffffffffffffffffffffffffffffffffffffffffffffffffffffff8262000489565b620004d4868362000489565b95508019841693508086168417925050509392505050565b6000819050919050565b6000819050919050565b6000620005216200051b6200051584620004ec565b620004f6565b620004ec565b9050919050565b6000819050919050565b6200053d8362000500565b620005556200054c8262000528565b84845462000496565b825550505050565b600090565b6200056c6200055d565b6200057981848462000532565b505050565b5b81811015620005a1576200059560008262000562565b6001810190506200057f565b5050565b601f821115620005f057620005ba8162000464565b620005c58462000479565b81016020851015620005d5578190505b620005ed620005e48562000479565b8301826200057e565b50505b505050565b600082821c905092915050565b60006200061560001984600802620005f5565b1980831691505092915050565b600062000630838362000602565b9150826002028217905092915050565b6200064b82620003f5565b67ffffffffffffffff81111562000667576200066662000240565b5b6200067382546200042f565b62000680828285620005a5565b600060209050601f831160018114620006b85760008415620006a3578287015190505b620006af858262000622565b8655506200071f565b601f198416620006c88662000464565b60005b82811015620006f257848901518255600182019150602085019450602081019050620006cb565b868310156200071257848901516200070e601f89168262000602565b8355505b6001600288020188555050505b505050505050565b61448e80620007376000396000f3fe6080604052600436106101b75760003560e01c80638647ca76116100ec578063c002d23d1161008a578063d85d3d2711610064578063d85d3d2714610621578063e985e9c51461063d578063f2fde38b1461067a578063ff70fa49146106a3576101b7565b8063c002d23d1461057b578063c2ba4744146105a6578063c87b56dd146105e4576101b7565b8063a22cb465116100c6578063a22cb465146104c1578063a2309ff8146104ea578063a7257a0414610515578063b88d4fde14610552576101b7565b80638647ca76146104425780638da5cb5b1461046b57806395d89b4114610496576101b7565b80633ad10ef6116101595780636352211e116101335780636352211e1461038657806370a08231146103c3578063715018a61461040057806374f82e3014610417576101b7565b80633ad10ef61461031b5780633ccfd60b1461034657806342842e0e1461035d576101b7565b8063095ea7b311610195578063095ea7b314610261578063151eeb551461028a57806323b872dd146102c757806332cb6b0c146102f0576101b7565b806301ffc9a7146101bc57806306fdde03146101f9578063081812fc14610224575b600080fd5b3480156101c857600080fd5b506101e360048036038101906101de9190612a12565b6106cc565b6040516101f09190612a5a565b60405180910390f35b34801561020557600080fd5b5061020e61072d565b60405161021b9190612b05565b60405180910390f35b34801561023057600080fd5b5061024b60048036038101906102469190612b5d565b6107bf565b6040516102589190612bcb565b60405180910390f35b34801561026d57600080fd5b5061028860048036038101906102839190612c12565b610805565b005b34801561029657600080fd5b506102b160048036038101906102ac9190612c52565b61091c565b6040516102be9190612a5a565b60405180910390f35b3480156102d357600080fd5b506102ee60048036038101906102e99190612c7f565b61093c565b005b3480156102fc57600080fd5b5061030561099c565b6040516103129190612ce1565b60405180910390f35b34801561032757600080fd5b506103306109a2565b60405161033d9190612d1d565b60405180910390f35b34801561035257600080fd5b5061035b6109c8565b005b34801561036957600080fd5b50610384600480360381019061037f9190612c7f565b610b72565b005b34801561039257600080fd5b506103ad60048036038101906103a89190612b5d565b610b92565b6040516103ba9190612bcb565b60405180910390f35b3480156103cf57600080fd5b506103ea60048036038101906103e59190612c52565b610c18565b6040516103f79190612ce1565b60405180910390f35b34801561040c57600080fd5b50610415610ccf565b005b34801561042357600080fd5b5061042c610ce3565b6040516104399190612b05565b60405180910390f35b34801561044e57600080fd5b5061046960048036038101906104649190612d9d565b610d71565b005b34801561047757600080fd5b50610480610e5a565b60405161048d9190612bcb565b60405180910390f35b3480156104a257600080fd5b506104ab610e84565b6040516104b89190612b05565b60405180910390f35b3480156104cd57600080fd5b506104e860048036038101906104e39190612e16565b610f16565b005b3480156104f657600080fd5b506104ff610f2c565b60405161050c9190612ce1565b60405180910390f35b34801561052157600080fd5b5061053c60048036038101906105379190612b5d565b610f32565b6040516105499190612b05565b60405180910390f35b34801561055e57600080fd5b5061057960048036038101906105749190612f86565b61101f565b005b34801561058757600080fd5b50610590611081565b60405161059d9190612ce1565b60405180910390f35b3480156105b257600080fd5b506105cd60048036038101906105c89190612c52565b61108c565b6040516105db929190613009565b60405180910390f35b3480156105f057600080fd5b5061060b60048036038101906106069190612b5d565b61114a565b6040516106189190612b05565b60405180910390f35b61063b60048036038101906106369190612d9d565b6112b8565b005b34801561064957600080fd5b50610664600480360381019061065f9190613039565b6113e4565b6040516106719190612a5a565b60405180910390f35b34801561068657600080fd5b506106a1600480360381019061069c9190612c52565b611478565b005b3480156106af57600080fd5b506106ca60048036038101906106c591906130a5565b6114fb565b005b6000634906490660e01b7bffffffffffffffffffffffffffffffffffffffffffffffffffffffff1916827bffffffffffffffffffffffffffffffffffffffffffffffffffffffff19161480610726575061072582611638565b5b9050919050565b60606000805461073c90613101565b80601f016020809104026020016040519081016040528092919081815260200182805461076890613101565b80156107b55780601f1061078a576101008083540402835291602001916107b5565b820191906000526020600020905b81548152906001019060200180831161079857829003601f168201915b5050505050905090565b60006107ca8261171a565b6004600083815260200190815260200160002060009054906101000a900473ffffffffffffffffffffffffffffffffffffffff169050919050565b600061081082610b92565b90508073ffffffffffffffffffffffffffffffffffffffff168373ffffffffffffffffffffffffffffffffffffffff1603610880576040517f08c379a0000000000000000000000000000000000000000000000000000000008152600401610877906131a4565b60405180910390fd5b8073ffffffffffffffffffffffffffffffffffffffff1661089f611765565b73ffffffffffffffffffffffffffffffffffffffff1614806108ce57506108cd816108c8611765565b6113e4565b5b61090d576040517f08c379a000000000000000000000000000000000000000000000000000000000815260040161090490613236565b60405180910390fd5b610917838361176d565b505050565b600c6020528060005260406000206000915054906101000a900460ff1681565b61094d610947611765565b82611826565b61098c576040517f08c379a0000000000000000000000000000000000000000000000000000000008152600401610983906132c8565b60405180910390fd5b6109978383836118bb565b505050565b61271081565b600a60009054906101000a900473ffffffffffffffffffffffffffffffffffffffff1681565b600a60009054906101000a900473ffffffffffffffffffffffffffffffffffffffff1673ffffffffffffffffffffffffffffffffffffffff163373ffffffffffffffffffffffffffffffffffffffff1614610a58576040517f08c379a0000000000000000000000000000000000000000000000000000000008152600401610a4f90613334565b60405180910390fd5b600047905060008111610aa0576040517f08c379a0000000000000000000000000000000000000000000000000000000008152600401610a97906133a0565b60405180910390fd5b6000600a60009054906101000a900473ffffffffffffffffffffffffffffffffffffffff1673ffffffffffffffffffffffffffffffffffffffff1682604051610ae8906133f1565b60006040518083038185875af1925050503d8060008114610b25576040519150601f19603f3d011682016040523d82523d6000602084013e610b2a565b606091505b5050905080610b6e576040517f08c379a0000000000000000000000000000000000000000000000000000000008152600401610b6590613452565b60405180910390fd5b5050565b610b8d8383836040518060200160405280600081525061101f565b505050565b600080610b9e83611bb4565b9050600073ffffffffffffffffffffffffffffffffffffffff168173ffffffffffffffffffffffffffffffffffffffff1603610c0f576040517f08c379a0000000000000000000000000000000000000000000000000000000008152600401610c06906134be565b60405180910390fd5b80915050919050565b60008073ffffffffffffffffffffffffffffffffffffffff168273ffffffffffffffffffffffffffffffffffffffff1603610c88576040517f08c379a0000000000000000000000000000000000000000000000000000000008152600401610c7f90613550565b60405180910390fd5b600360008373ffffffffffffffffffffffffffffffffffffffff1673ffffffffffffffffffffffffffffffffffffffff168152602001908152602001600020549050919050565b610cd7611bf1565b610ce16000611c6f565b565b60098054610cf090613101565b80601f0160208091040260200160405190810160405280929190818152602001828054610d1c90613101565b8015610d695780601f10610d3e57610100808354040283529160200191610d69565b820191906000526020600020905b815481529060010190602001808311610d4c57829003601f168201915b505050505081565b610d79611bf1565b600060098054610d8890613101565b80601f0160208091040260200160405190810160405280929190818152602001828054610db490613101565b8015610e015780601f10610dd657610100808354040283529160200191610e01565b820191906000526020600020905b815481529060010190602001808311610de457829003601f168201915b50505050509050828260099182610e19929190613727565b507fc41b7cb64e5be01af4afc2641afc861432136270f4206b7773f229b658b96699818484604051610e4d93929190613824565b60405180910390a1505050565b6000600760009054906101000a900473ffffffffffffffffffffffffffffffffffffffff16905090565b606060018054610e9390613101565b80601f0160208091040260200160405190810160405280929190818152602001828054610ebf90613101565b8015610f0c5780601f10610ee157610100808354040283529160200191610f0c565b820191906000526020600020905b815481529060010190602001808311610eef57829003601f168201915b5050505050905090565b610f28610f21611765565b8383611d35565b5050565b60085481565b6060610f3d82611ea1565b610f7c576040517f08c379a0000000000000000000000000000000000000000000000000000000008152600401610f73906138a9565b60405180910390fd5b600b60008381526020019081526020016000208054610f9a90613101565b80601f0160208091040260200160405190810160405280929190818152602001828054610fc690613101565b80156110135780601f10610fe857610100808354040283529160200191611013565b820191906000526020600020905b815481529060010190602001808311610ff657829003601f168201915b50505050509050919050565b61103061102a611765565b83611826565b61106f576040517f08c379a0000000000000000000000000000000000000000000000000000000008152600401611066906132c8565b60405180910390fd5b61107b84848484611ee2565b50505050565b66038d7ea4c6800081565b60006060612710600854106110dc5760006040518060400160405280600f81526020017f416c6c204e465473206d696e746564000000000000000000000000000000000081525091509150611145565b60006110e784610c18565b111561112e5760006040518060400160405280601381526020017f4f6e6c79206f6e65207065722077616c6c65740000000000000000000000000081525091509150611145565b600160405180602001604052806000815250915091505b915091565b606061115582611ea1565b611194576040517f08c379a000000000000000000000000000000000000000000000000000000000815260040161118b906138a9565b60405180910390fd5b6000600b600084815260200190815260200160002080546111b490613101565b80601f01602080910402602001604051908101604052809291908181526020018280546111e090613101565b801561122d5780601f106112025761010080835404028352916020019161122d565b820191906000526020600020905b81548152906001019060200180831161121057829003601f168201915b50505050509050600060098260405160200161124a929190613988565b604051602081830303815290604052905061126484611f3e565b61128d61127086610b92565b73ffffffffffffffffffffffffffffffffffffffff16601461200c565b826040516020016112a093929190613b4e565b60405160208183030381529060405292505050919050565b66038d7ea4c68000341015611302576040517f08c379a00000000000000000000000000000000000000000000000000000000081526004016112f990613c02565b60405180910390fd5b61271060085410611348576040517f08c379a000000000000000000000000000000000000000000000000000000000815260040161133f90613c6e565b60405180910390fd5b600061135333610c18565b14611393576040517f08c379a000000000000000000000000000000000000000000000000000000000815260040161138a90613cda565b60405180910390fd5b60006008549050600860008154809291906113ad90613d29565b91905055506113bc3382612248565b8282600b600084815260200190815260200160002091826113de929190613727565b50505050565b6000600560008473ffffffffffffffffffffffffffffffffffffffff1673ffffffffffffffffffffffffffffffffffffffff16815260200190815260200160002060008373ffffffffffffffffffffffffffffffffffffffff1673ffffffffffffffffffffffffffffffffffffffff16815260200190815260200160002060009054906101000a900460ff16905092915050565b611480611bf1565b600073ffffffffffffffffffffffffffffffffffffffff168173ffffffffffffffffffffffffffffffffffffffff16036114ef576040517f08c379a00000000000000000000000000000000000000000000000000000000081526004016114e690613de3565b60405180910390fd5b6114f881611c6f565b50565b611503611bf1565b600073ffffffffffffffffffffffffffffffffffffffff168173ffffffffffffffffffffffffffffffffffffffff1603611572576040517f08c379a000000000000000000000000000000000000000000000000000000000815260040161156990613e4f565b60405180910390fd5b6000600a60009054906101000a900473ffffffffffffffffffffffffffffffffffffffff16905081600a60006101000a81548173ffffffffffffffffffffffffffffffffffffffff021916908373ffffffffffffffffffffffffffffffffffffffff1602179055508173ffffffffffffffffffffffffffffffffffffffff168173ffffffffffffffffffffffffffffffffffffffff167fe823578be672ebcfc6a23fce5293a8769dd2449c1ae45d769b8ba0fc3435625f60405160405180910390a35050565b60007f80ac58cd000000000000000000000000000000000000000000000000000000007bffffffffffffffffffffffffffffffffffffffffffffffffffffffff1916827bffffffffffffffffffffffffffffffffffffffffffffffffffffffff1916148061170357507f5b5e139f000000000000000000000000000000000000000000000000000000007bffffffffffffffffffffffffffffffffffffffffffffffffffffffff1916827bffffffffffffffffffffffffffffffffffffffffffffffffffffffff1916145b80611713575061171282612266565b5b9050919050565b61172381611ea1565b611762576040517f08c379a0000000000000000000000000000000000000000000000000000000008152600401611759906134be565b60405180910390fd5b50565b600033905090565b816004600083815260200190815260200160002060006101000a81548173ffffffffffffffffffffffffffffffffffffffff021916908373ffffffffffffffffffffffffffffffffffffffff160217905550808273ffffffffffffffffffffffffffffffffffffffff166117e083610b92565b73ffffffffffffffffffffffffffffffffffffffff167f8c5be1e5ebec7d5bd14f71427d1e84f3dd0314c0f7b2291e5b200ac8c7c3b92560405160405180910390a45050565b60008061183283610b92565b90508073ffffffffffffffffffffffffffffffffffffffff168473ffffffffffffffffffffffffffffffffffffffff161480611874575061187381856113e4565b5b806118b257508373ffffffffffffffffffffffffffffffffffffffff1661189a846107bf565b73ffffffffffffffffffffffffffffffffffffffff16145b91505092915050565b8273ffffffffffffffffffffffffffffffffffffffff166118db82610b92565b73ffffffffffffffffffffffffffffffffffffffff1614611931576040517f08c379a000000000000000000000000000000000000000000000000000000000815260040161192890613ee1565b60405180910390fd5b600073ffffffffffffffffffffffffffffffffffffffff168273ffffffffffffffffffffffffffffffffffffffff16036119a0576040517f08c379a000000000000000000000000000000000000000000000000000000000815260040161199790613f73565b60405180910390fd5b6119ad83838360016122d0565b8273ffffffffffffffffffffffffffffffffffffffff166119cd82610b92565b73ffffffffffffffffffffffffffffffffffffffff1614611a23576040517f08c379a0000000000000000000000000000000000000000000000000000000008152600401611a1a90613ee1565b60405180910390fd5b6004600082815260200190815260200160002060006101000a81549073ffffffffffffffffffffffffffffffffffffffff02191690556001600360008573ffffffffffffffffffffffffffffffffffffffff1673ffffffffffffffffffffffffffffffffffffffff168152602001908152602001600020600082825403925050819055506001600360008473ffffffffffffffffffffffffffffffffffffffff1673ffffffffffffffffffffffffffffffffffffffff16815260200190815260200160002060008282540192505081905550816002600083815260200190815260200160002060006101000a81548173ffffffffffffffffffffffffffffffffffffffff021916908373ffffffffffffffffffffffffffffffffffffffff160217905550808273ffffffffffffffffffffffffffffffffffffffff168473ffffffffffffffffffffffffffffffffffffffff167fddf252ad1be2c89b69c2b068fc378daa952ba7f163c4a11628f55a4df523b3ef60405160405180910390a4611baf8383836001612425565b505050565b60006002600083815260200190815260200160002060009054906101000a900473ffffffffffffffffffffffffffffffffffffffff169050919050565b611bf9611765565b73ffffffffffffffffffffffffffffffffffffffff16611c17610e5a565b73ffffffffffffffffffffffffffffffffffffffff1614611c6d576040517f08c379a0000000000000000000000000000000000000000000000000000000008152600401611c6490613fdf565b60405180910390fd5b565b6000600760009054906101000a900473ffffffffffffffffffffffffffffffffffffffff16905081600760006101000a81548173ffffffffffffffffffffffffffffffffffffffff021916908373ffffffffffffffffffffffffffffffffffffffff1602179055508173ffffffffffffffffffffffffffffffffffffffff168173ffffffffffffffffffffffffffffffffffffffff167f8be0079c531659141344cd1fd0a4f28419497f9722a3daafe3b4186f6b6457e060405160405180910390a35050565b8173ffffffffffffffffffffffffffffffffffffffff168373ffffffffffffffffffffffffffffffffffffffff1603611da3576040517f08c379a0000000000000000000000000000000000000000000000000000000008152600401611d9a9061404b565b60405180910390fd5b80600560008573ffffffffffffffffffffffffffffffffffffffff1673ffffffffffffffffffffffffffffffffffffffff16815260200190815260200160002060008473ffffffffffffffffffffffffffffffffffffffff1673ffffffffffffffffffffffffffffffffffffffff16815260200190815260200160002060006101000a81548160ff0219169083151502179055508173ffffffffffffffffffffffffffffffffffffffff168373ffffffffffffffffffffffffffffffffffffffff167f17307eab39ab6107e8899845ad3d59bd9653f200f220920489ca2b5937696c3183604051611e949190612a5a565b60405180910390a3505050565b60008073ffffffffffffffffffffffffffffffffffffffff16611ec383611bb4565b73ffffffffffffffffffffffffffffffffffffffff1614159050919050565b611eed8484846118bb565b611ef98484848461242b565b611f38576040517f08c379a0000000000000000000000000000000000000000000000000000000008152600401611f2f906140dd565b60405180910390fd5b50505050565b606060006001611f4d846125b2565b01905060008167ffffffffffffffff811115611f6c57611f6b612e5b565b5b6040519080825280601f01601f191660200182016040528015611f9e5781602001600182028036833780820191505090505b509050600082602001820190505b600115612001578080600190039150507f3031323334353637383961626364656600000000000000000000000000000000600a86061a8153600a8581611ff557611ff46140fd565b5b04945060008503611fac575b819350505050919050565b60606000600283600261201f919061412c565b612029919061416e565b67ffffffffffffffff81111561204257612041612e5b565b5b6040519080825280601f01601f1916602001820160405280156120745781602001600182028036833780820191505090505b5090507f3000000000000000000000000000000000000000000000000000000000000000816000815181106120ac576120ab6141a2565b5b60200101907effffffffffffffffffffffffffffffffffffffffffffffffffffffffffffff1916908160001a9053507f7800000000000000000000000000000000000000000000000000000000000000816001815181106121105761210f6141a2565b5b60200101907effffffffffffffffffffffffffffffffffffffffffffffffffffffffffffff1916908160001a90535060006001846002612150919061412c565b61215a919061416e565b90505b60018111156121fa577f3031323334353637383961626364656600000000000000000000000000000000600f86166010811061219c5761219b6141a2565b5b1a60f81b8282815181106121b3576121b26141a2565b5b60200101907effffffffffffffffffffffffffffffffffffffffffffffffffffffffffffff1916908160001a905350600485901c9450806121f3906141d1565b905061215d565b506000841461223e576040517f08c379a000000000000000000000000000000000000000000000000000000000815260040161223590614246565b60405180910390fd5b8091505092915050565b612262828260405180602001604052806000815250612705565b5050565b60007f01ffc9a7000000000000000000000000000000000000000000000000000000007bffffffffffffffffffffffffffffffffffffffffffffffffffffffff1916827bffffffffffffffffffffffffffffffffffffffffffffffffffffffff1916149050919050565b600073ffffffffffffffffffffffffffffffffffffffff168473ffffffffffffffffffffffffffffffffffffffff161415801561233a5750600073ffffffffffffffffffffffffffffffffffffffff168373ffffffffffffffffffffffffffffffffffffffff1614155b1561241357600c60003373ffffffffffffffffffffffffffffffffffffffff1673ffffffffffffffffffffffffffffffffffffffff16815260200190815260200160002060009054906101000a900460ff161580156123cc575061239c610e5a565b73ffffffffffffffffffffffffffffffffffffffff163373ffffffffffffffffffffffffffffffffffffffff1614155b15612412578383836040517f1e74fa2600000000000000000000000000000000000000000000000000000000815260040161240993929190614266565b60405180910390fd5b5b61241f84848484612760565b50505050565b50505050565b600061244c8473ffffffffffffffffffffffffffffffffffffffff16612766565b156125a5578373ffffffffffffffffffffffffffffffffffffffff1663150b7a02612475611765565b8786866040518563ffffffff1660e01b815260040161249794939291906142f2565b6020604051808303816000875af19250505080156124d357506040513d601f19601f820116820180604052508101906124d09190614353565b60015b612555573d8060008114612503576040519150601f19603f3d011682016040523d82523d6000602084013e612508565b606091505b50600081510361254d576040517f08c379a0000000000000000000000000000000000000000000000000000000008152600401612544906140dd565b60405180910390fd5b805181602001fd5b63150b7a0260e01b7bffffffffffffffffffffffffffffffffffffffffffffffffffffffff1916817bffffffffffffffffffffffffffffffffffffffffffffffffffffffff1916149150506125aa565b600190505b949350505050565b600080600090507a184f03e93ff9f4daa797ed6e38ed64bf6a1f0100000000000000008310612610577a184f03e93ff9f4daa797ed6e38ed64bf6a1f0100000000000000008381612606576126056140fd565b5b0492506040810190505b6d04ee2d6d415b85acef8100000000831061264d576d04ee2d6d415b85acef81000000008381612643576126426140fd565b5b0492506020810190505b662386f26fc10000831061267c57662386f26fc100008381612672576126716140fd565b5b0492506010810190505b6305f5e10083106126a5576305f5e100838161269b5761269a6140fd565b5b0492506008810190505b61271083106126ca5761271083816126c0576126bf6140fd565b5b0492506004810190505b606483106126ed57606483816126e3576126e26140fd565b5b0492506002810190505b600a83106126fc576001810190505b80915050919050565b61270f8383612789565b61271c600084848461242b565b61275b576040517f08c379a0000000000000000000000000000000000000000000000000000000008152600401612752906140dd565b60405180910390fd5b505050565b50505050565b6000808273ffffffffffffffffffffffffffffffffffffffff163b119050919050565b600073ffffffffffffffffffffffffffffffffffffffff168273ffffffffffffffffffffffffffffffffffffffff16036127f8576040517f08c379a00000000000000000000000000000000000000000000000000000000081526004016127ef906143cc565b60405180910390fd5b61280181611ea1565b15612841576040517f08c379a000000000000000000000000000000000000000000000000000000000815260040161283890614438565b60405180910390fd5b61284f6000838360016122d0565b61285881611ea1565b15612898576040517f08c379a000000000000000000000000000000000000000000000000000000000815260040161288f90614438565b60405180910390fd5b6001600360008473ffffffffffffffffffffffffffffffffffffffff1673ffffffffffffffffffffffffffffffffffffffff16815260200190815260200160002060008282540192505081905550816002600083815260200190815260200160002060006101000a81548173ffffffffffffffffffffffffffffffffffffffff021916908373ffffffffffffffffffffffffffffffffffffffff160217905550808273ffffffffffffffffffffffffffffffffffffffff16600073ffffffffffffffffffffffffffffffffffffffff167fddf252ad1be2c89b69c2b068fc378daa952ba7f163c4a11628f55a4df523b3ef60405160405180910390a46129a2600083836001612425565b5050565b6000604051905090565b600080fd5b600080fd5b60007fffffffff0000000000000000000000000000000000000000000000000000000082169050919050565b6129ef816129ba565b81146129fa57600080fd5b50565b600081359050612a0c816129e6565b92915050565b600060208284031215612a2857612a276129b0565b5b6000612a36848285016129fd565b91505092915050565b60008115159050919050565b612a5481612a3f565b82525050565b6000602082019050612a6f6000830184612a4b565b92915050565b600081519050919050565b600082825260208201905092915050565b60005b83811015612aaf578082015181840152602081019050612a94565b60008484015250505050565b6000601f19601f8301169050919050565b6000612ad782612a75565b612ae18185612a80565b9350612af1818560208601612a91565b612afa81612abb565b840191505092915050565b60006020820190508181036000830152612b1f8184612acc565b905092915050565b6000819050919050565b612b3a81612b27565b8114612b4557600080fd5b50565b600081359050612b5781612b31565b92915050565b600060208284031215612b7357612b726129b0565b5b6000612b8184828501612b48565b91505092915050565b600073ffffffffffffffffffffffffffffffffffffffff82169050919050565b6000612bb582612b8a565b9050919050565b612bc581612baa565b82525050565b6000602082019050612be06000830184612bbc565b92915050565b612bef81612baa565b8114612bfa57600080fd5b50565b600081359050612c0c81612be6565b92915050565b60008060408385031215612c2957612c286129b0565b5b6000612c3785828601612bfd565b9250506020612c4885828601612b48565b9150509250929050565b600060208284031215612c6857612c676129b0565b5b6000612c7684828501612bfd565b91505092915050565b600080600060608486031215612c9857612c976129b0565b5b6000612ca686828701612bfd565b9350506020612cb786828701612bfd565b9250506040612cc886828701612b48565b9150509250925092565b612cdb81612b27565b82525050565b6000602082019050612cf66000830184612cd2565b92915050565b6000612d0782612b8a565b9050919050565b612d1781612cfc565b82525050565b6000602082019050612d326000830184612d0e565b92915050565b600080fd5b600080fd5b600080fd5b60008083601f840112612d5d57612d5c612d38565b5b8235905067ffffffffffffffff811115612d7a57612d79612d3d565b5b602083019150836001820283011115612d9657612d95612d42565b5b9250929050565b60008060208385031215612db457612db36129b0565b5b600083013567ffffffffffffffff811115612dd257612dd16129b5565b5b612dde85828601612d47565b92509250509250929050565b612df381612a3f565b8114612dfe57600080fd5b50565b600081359050612e1081612dea565b92915050565b60008060408385031215612e2d57612e2c6129b0565b5b6000612e3b85828601612bfd565b9250506020612e4c85828601612e01565b9150509250929050565b600080fd5b7f4e487b7100000000000000000000000000000000000000000000000000000000600052604160045260246000fd5b612e9382612abb565b810181811067ffffffffffffffff82111715612eb257612eb1612e5b565b5b80604052505050565b6000612ec56129a6565b9050612ed18282612e8a565b919050565b600067ffffffffffffffff821115612ef157612ef0612e5b565b5b612efa82612abb565b9050602081019050919050565b82818337600083830152505050565b6000612f29612f2484612ed6565b612ebb565b905082815260208101848484011115612f4557612f44612e56565b5b612f50848285612f07565b509392505050565b600082601f830112612f6d57612f6c612d38565b5b8135612f7d848260208601612f16565b91505092915050565b60008060008060808587031215612fa057612f9f6129b0565b5b6000612fae87828801612bfd565b9450506020612fbf87828801612bfd565b9350506040612fd087828801612b48565b925050606085013567ffffffffffffffff811115612ff157612ff06129b5565b5b612ffd87828801612f58565b91505092959194509250565b600060408201905061301e6000830185612a4b565b81810360208301526130308184612acc565b90509392505050565b600080604083850312156130505761304f6129b0565b5b600061305e85828601612bfd565b925050602061306f85828601612bfd565b9150509250929050565b61308281612cfc565b811461308d57600080fd5b50565b60008135905061309f81613079565b92915050565b6000602082840312156130bb576130ba6129b0565b5b60006130c984828501613090565b91505092915050565b7f4e487b7100000000000000000000000000000000000000000000000000000000600052602260045260246000fd5b6000600282049050600182168061311957607f821691505b60208210810361312c5761312b6130d2565b5b50919050565b7f4552433732313a20617070726f76616c20746f2063757272656e74206f776e6560008201527f7200000000000000000000000000000000000000000000000000000000000000602082015250565b600061318e602183612a80565b915061319982613132565b604082019050919050565b600060208201905081810360008301526131bd81613181565b9050919050565b7f4552433732313a20617070726f76652063616c6c6572206973206e6f7420746f60008201527f6b656e206f776e6572206f7220617070726f76656420666f7220616c6c000000602082015250565b6000613220603d83612a80565b915061322b826131c4565b604082019050919050565b6000602082019050818103600083015261324f81613213565b9050919050565b7f4552433732313a2063616c6c6572206973206e6f7420746f6b656e206f776e6560008201527f72206f7220617070726f76656400000000000000000000000000000000000000602082015250565b60006132b2602d83612a80565b91506132bd82613256565b604082019050919050565b600060208201905081810360008301526132e1816132a5565b9050919050565b7f4f6e6c7920646576656c6f706572000000000000000000000000000000000000600082015250565b600061331e600e83612a80565b9150613329826132e8565b602082019050919050565b6000602082019050818103600083015261334d81613311565b9050919050565b7f4e6f2066756e647320746f207769746864726177000000000000000000000000600082015250565b600061338a601483612a80565b915061339582613354565b602082019050919050565b600060208201905081810360008301526133b98161337d565b9050919050565b600081905092915050565b50565b60006133db6000836133c0565b91506133e6826133cb565b600082019050919050565b60006133fc826133ce565b9150819050919050565b7f5769746864726177206661696c65640000000000000000000000000000000000600082015250565b600061343c600f83612a80565b915061344782613406565b602082019050919050565b6000602082019050818103600083015261346b8161342f565b9050919050565b7f4552433732313a20696e76616c696420746f6b656e2049440000000000000000600082015250565b60006134a8601883612a80565b91506134b382613472565b602082019050919050565b600060208201905081810360008301526134d78161349b565b9050919050565b7f4552433732313a2061646472657373207a65726f206973206e6f74206120766160008201527f6c6964206f776e65720000000000000000000000000000000000000000000000602082015250565b600061353a602983612a80565b9150613545826134de565b604082019050919050565b600060208201905081810360008301526135698161352d565b9050919050565b600082905092915050565b60008190508160005260206000209050919050565b60006020601f8301049050919050565b600082821b905092915050565b6000600883026135dd7fffffffffffffffffffffffffffffffffffffffffffffffffffffffffffffffff826135a0565b6135e786836135a0565b95508019841693508086168417925050509392505050565b6000819050919050565b600061362461361f61361a84612b27565b6135ff565b612b27565b9050919050565b6000819050919050565b61363e83613609565b61365261364a8261362b565b8484546135ad565b825550505050565b600090565b61366761365a565b613672818484613635565b505050565b5b818110156136965761368b60008261365f565b600181019050613678565b5050565b601f8211156136db576136ac8161357b565b6136b584613590565b810160208510156136c4578190505b6136d86136d085613590565b830182613677565b50505b505050565b600082821c905092915050565b60006136fe600019846008026136e0565b1980831691505092915050565b600061371783836136ed565b9150826002028217905092915050565b6137318383613570565b67ffffffffffffffff81111561374a57613749612e5b565b5b6137548254613101565b61375f82828561369a565b6000601f83116001811461378e576000841561377c578287013590505b613786858261370b565b8655506137ee565b601f19841661379c8661357b565b60005b828110156137c45784890135825560018201915060208501945060208101905061379f565b868310156137e157848901356137dd601f8916826136ed565b8355505b6001600288020188555050505b50505050505050565b60006138038385612a80565b9350613810838584612f07565b61381983612abb565b840190509392505050565b6000604082019050818103600083015261383e8186612acc565b905081810360208301526138538184866137f7565b9050949350505050565b7f546f6b656e20646f65736e277420657869737400000000000000000000000000600082015250565b6000613893601383612a80565b915061389e8261385d565b602082019050919050565b600060208201905081810360008301526138c281613886565b9050919050565b600081905092915050565b600081546138e181613101565b6138eb81866138c9565b94506001821660008114613906576001811461391b5761394e565b60ff198316865281151582028601935061394e565b6139248561357b565b60005b8381101561394657815481890152600182019150602081019050613927565b838801955050505b50505092915050565b600061396282612a75565b61396c81856138c9565b935061397c818560208601612a91565b80840191505092915050565b600061399482856138d4565b91506139a08284613957565b91508190509392505050565b7f646174613a6170706c69636174696f6e2f6a736f6e3b757466382c0000000000600082015250565b60006139e2601b836138c9565b91506139ed826139ac565b601b82019050919050565b7f7b226e616d65223a2245706f636850617373204e465420230000000000000000600082015250565b6000613a2e6018836138c9565b9150613a39826139f8565b601882019050919050565b7f222c226465736372697074696f6e223a22412045706f636850617373204e465460008201527f206d696e74656420627920000000000000000000000000000000000000000000602082015250565b6000613aa0602b836138c9565b9150613aab82613a44565b602b82019050919050565b7f222c22696d616765223a22000000000000000000000000000000000000000000600082015250565b6000613aec600b836138c9565b9150613af782613ab6565b600b82019050919050565b7f227d000000000000000000000000000000000000000000000000000000000000600082015250565b6000613b386002836138c9565b9150613b4382613b02565b600282019050919050565b6000613b59826139d5565b9150613b6482613a21565b9150613b708286613957565b9150613b7b82613a93565b9150613b878285613957565b9150613b9282613adf565b9150613b9e8284613957565b9150613ba982613b2b565b9150819050949350505050565b7f496e73756666696369656e74207061796d656e74000000000000000000000000600082015250565b6000613bec601483612a80565b9150613bf782613bb6565b602082019050919050565b60006020820190508181036000830152613c1b81613bdf565b9050919050565b7f416c6c204e465473206d696e7465640000000000000000000000000000000000600082015250565b6000613c58600f83612a80565b9150613c6382613c22565b602082019050919050565b60006020820190508181036000830152613c8781613c4b565b9050919050565b7f4f6e6c79206f6e65207065722077616c6c657400000000000000000000000000600082015250565b6000613cc4601383612a80565b9150613ccf82613c8e565b602082019050919050565b60006020820190508181036000830152613cf381613cb7565b9050919050565b7f4e487b7100000000000000000000000000000000000000000000000000000000600052601160045260246000fd5b6000613d3482612b27565b91507fffffffffffffffffffffffffffffffffffffffffffffffffffffffffffffffff8203613d6657613d65613cfa565b5b600182019050919050565b7f4f776e61626c653a206e6577206f776e657220697320746865207a65726f206160008201527f6464726573730000000000000000000000000000000000000000000000000000602082015250565b6000613dcd602683612a80565b9150613dd882613d71565b604082019050919050565b60006020820190508181036000830152613dfc81613dc0565b9050919050565b7f496e76616c696420646576000000000000000000000000000000000000000000600082015250565b6000613e39600b83612a80565b9150613e4482613e03565b602082019050919050565b60006020820190508181036000830152613e6881613e2c565b9050919050565b7f4552433732313a207472616e736665722066726f6d20696e636f72726563742060008201527f6f776e6572000000000000000000000000000000000000000000000000000000602082015250565b6000613ecb602583612a80565b9150613ed682613e6f565b604082019050919050565b60006020820190508181036000830152613efa81613ebe565b9050919050565b7f4552433732313a207472616e7366657220746f20746865207a65726f2061646460008201527f7265737300000000000000000000000000000000000000000000000000000000602082015250565b6000613f5d602483612a80565b9150613f6882613f01565b604082019050919050565b60006020820190508181036000830152613f8c81613f50565b9050919050565b7f4f776e61626c653a2063616c6c6572206973206e6f7420746865206f776e6572600082015250565b6000613fc9602083612a80565b9150613fd482613f93565b602082019050919050565b60006020820190508181036000830152613ff881613fbc565b9050919050565b7f4552433732313a20617070726f766520746f2063616c6c657200000000000000600082015250565b6000614035601983612a80565b915061404082613fff565b602082019050919050565b6000602082019050818103600083015261406481614028565b9050919050565b7f4552433732313a207472616e7366657220746f206e6f6e20455243373231526560008201527f63656976657220696d706c656d656e7465720000000000000000000000000000602082015250565b60006140c7603283612a80565b91506140d28261406b565b604082019050919050565b600060208201905081810360008301526140f6816140ba565b9050919050565b7f4e487b7100000000000000000000000000000000000000000000000000000000600052601260045260246000fd5b600061413782612b27565b915061414283612b27565b925082820261415081612b27565b9150828204841483151761416757614166613cfa565b5b5092915050565b600061417982612b27565b915061418483612b27565b925082820190508082111561419c5761419b613cfa565b5b92915050565b7f4e487b7100000000000000000000000000000000000000000000000000000000600052603260045260246000fd5b60006141dc82612b27565b9150600082036141ef576141ee613cfa565b5b600182039050919050565b7f537472696e67733a20686578206c656e67746820696e73756666696369656e74600082015250565b6000614230602083612a80565b915061423b826141fa565b602082019050919050565b6000602082019050818103600083015261425f81614223565b9050919050565b600060608201905061427b6000830186612bbc565b6142886020830185612bbc565b6142956040830184612cd2565b949350505050565b600081519050919050565b600082825260208201905092915050565b60006142c48261429d565b6142ce81856142a8565b93506142de818560208601612a91565b6142e781612abb565b840191505092915050565b60006080820190506143076000830187612bbc565b6143146020830186612bbc565b6143216040830185612cd2565b818103606083015261433381846142b9565b905095945050505050565b60008151905061434d816129e6565b92915050565b600060208284031215614369576143686129b0565b5b60006143778482850161433e565b91505092915050565b7f4552433732313a206d696e7420746f20746865207a65726f2061646472657373600082015250565b60006143b6602083612a80565b91506143c182614380565b602082019050919050565b600060208201905081810360008301526143e5816143a9565b9050919050565b7f4552433732313a20746f6b656e20616c7265616479206d696e74656400000000600082015250565b6000614422601c83612a80565b915061442d826143ec565b602082019050919050565b6000602082019050818103600083015261445181614415565b905091905056fea264697066735822122053bd8925cc95e7a8c309a51217853fb2606aa34250fd661be050ff6f96b849dc64736f6c63430008140033",
  "linkReferences": {},
  "deployedLinkReferences": {}
}